:1000000012130400000000000000000000000000C7
:1000100000000000000000000000000000000000E0
:1000200000000000000000006E0D00000000000055
:1000300000000000000000000000000000000000C0
:10004000000000006A0C0000000E000040100000DC
:1000500000000000000000000000000000000000A0
:100060000000000000000000000000000000000090
:100070000000000000000000000000000000000080
:1000800000000000FA110000000000000000000065
:100090000000000000000000000000000000000060
:1000A0000000000000000000000000000000000050
:1000B0000000000000000000000000000000000040
:1000C0000000000000000000000000000000000030
:1000D0000000000000000000000000000000000020
:1000E0000000000000000000000000000000000010
:1000F0000000000000000000000000000000000000
:1001000000000000000000000000000000000000EF
:1001100000000000000000000000000000000000DF
:1001200000000000000000000000000000000000CF
:1001300000000000000000000000000000000000BF
:1001400000000000000000000000000000000000AF
:10015000000000000000000000000000000000009F
:10016000000000000000000000000000000000008F
:10017000000000000000000000000000000000007F
:10018000000000000000000000000000000000006F
:10019000000000000000000000000000000000005F
:1001A000000000000000000000000000000000004F
:1001B000000000000000000000000000000000003F
:1001C000000000000000000000000000000000002F
:1001D000000000000000000000000000000000001F
:1001E000000000000000000000000000000000000F
:1001F00000000000000000000000000000000000FF
:10262400EF9F2000F0FF200020A0B7000000200052
:1026340034A0B700400020004420B700001402007A
:10264400000000000A140200000000008A1F780045
:10265400CAFB0700D804200087B524000E20ED0033
:10266400FEFF3A001020ED00FCFF3A0000000000DD
:102674004ACBB30047FA070008012000472424008E
:102684000E20ED00FEFF3A001020ED00FCFF3A00A2
:1026940011C0B300A085200010C8400031FA070023
:1026A400D0852000104078006104E10006003A0063
:1026B400D18520000020EF00804878005ACBB30079
:1026C40034FA070009003700908620001040780093
:1026D4006104E10005003A00918620000020EF002B
:1026E400804878003ACBB3002AFA07000771220029
:1026F4000E20ED00FEFF3A00E5FF37004F0578009D
:04270400FFFF37009C
:101580008A1F78008B1F78008C1F78008D1F7800D1
:10159000F0FF2F00A8A2B700A962A900A942A900E4
:1015A000A922A900A982A900C762A800C742A80071
:1015B000C722A800C782A800C662A900C682A900E7
:1015C000C6A2A900C6C2A90051168000703820002A
:1015D00000816000508420001080FB00C300DD000B
:1015E0008007200081006000A02C2000010871000D
:1015F00016FC0700C602A900D202A900D222A90047
:10160000C702A900CA02A800D602A800D622A800D4
:10161000CB02A800E8022000E76C2C000E20ED00B1
:10162000FEFF3A001020ED00FCFF3A00CA02A900BC
:10163000D602A900E8022000E76C2C000E20ED0085
:10164000FEFF3A001020ED00FCFF3A00CA02A8009D
:10165000D602A800E222A900DE22A900C19F200034
:101660000020EF0080487800919F20000020EF00CC
:10167000804878000020EF00D04F88003D00200017
:10168000CC0120001620EF001420EF000020EF0016
:10169000801F780000042000801F780000202000B8
:1016A000801F780000082000801F7800BFFC070022
:1016B0008F00B1008D00A8008500A90080092000DE
:1016C00010407800E7407000800920000148780051
:1016D00020C2A90021E2A8000A5822000B00200025
:1016E000D0FD0700D662A800D262A9000D42A80072
:1016F00008012000472424000E20ED00FEFF3A00E0
:101700001020ED00FCFF3A00C420A8008D20A800A6
:101710008520A90000C4B300804078008009200023
:1017200090C0680000C7B30080C06000800920003E
:1017300090C068008009200001487800E020200067
:1017400090407800F0C3B30080C06000E02020002B
:10175000014878006A842000A1FD07009809200054
:10176000176B29000E20ED00FEFF3A001020ED005F
:10177000FCFF3A0000000000000000004A81200049
:1017800097FD070098092000176B29000E20ED0037
:10179000FEFF3A001020ED00FCFF3A0000000000C0
:1017A00000000000C162A800C362A9008200A90075
:1017B0008C00A8008400A9009440A8009420A900EF
:1017C0009400A900C2FC0700D322A8008EE0A80064
:1017D00086E0A9008240A8009FC0A8009FA0A900A1
:1017E0009F80A900D804200087B524000E20ED00BA
:1017F000FEFF3A001020ED00FCFF3A000000000060
:10180000CF0678004F067800CF0578004F057800A6
:0418100000000600CE
:10064C000001200012A1B7008CE0A80084E0A900F2
:10065C000A21EF0097C0A80097A0A8009780A800D7
:0C066C00C02729000EA1B7000000060006
:1009AC000000FA00CEB897003EBA97002EB9970017
:1009BC009EB997002022EF002222EF00F0FF2F00BB
:1009CC0020448800F0FF2F00F04388000B007500D6
:1009DC000C0070000D00700001007000040070002D
:1009EC0082007000202220000388700020C2A90021
:0C09FC0021E2A8000080FA0000000600C4
:100E24000800FA0000302000E0438800F0FF2F00A3
:100E340010448800F0FF2F0000448800F0FF2F00CA
:100E4400804488000C22EF00000028000EA2B700A6
:100E5400FAFD0700823E20000300200012FF070075
:100E64000002BE00ECFD07004100DE00640040000B
:100E74000A01BE000000E900030035000201D000B1
:100E84008381D200FBFF3700020798001307980004
:100E9400849FBE000400BE000002EB00380107007E
:100EA4004F02BE0020079800310798000400BE00DE
:100EB4000E0190009E0190000002EB00D1FE07009D
:100EC4008001780001027800600047005001D100E1
:100ED400C080D300640047003008E1002090E100A6
:100EE4000400310061804100E0004A000001BE00BE
:100EF400020037000301780084017800610051008A
:100F0400E0805900A01088000E22A9000DE2A8007C
:100F14000F42A800C2FD0700C1FD07000080FA00CF
:040F240000000600C3
:0C064000004C2D001100200000000600FE
:08061C00400020000000060070
:1006240008012000472424000E20ED00FEFF3A00BC
:0C0634001020ED00FCFF3A000000060062
:100AAC000000FA00020AB800500088000200B800EA
:100ABC0081004200032AB800810042000080FA0045
:040ACC000000060020
:101384000000FA0002000700160A04000000000032
:101394000800E20002003A00100007000000060006
:1013A400811F78000200E20002003D00600010008E
:1013B400E08018000600E20002003D006001110018
:1013C400E0811900050007004F00E00002003B0027
:1013D40060001000E0801800000006000200070012
:1013E4000480BE00000006006022B800060220004F
:1013F4000000D0008180D2000482D2008582D20015
:101404000000A8000202520083825A0003003B003D
:101414000202420083824A000000A1000603E900A0
:10142400F3FF3A00000006000080FA000000060006
:100A08000000FA0002000700520504000000000080
:100A18000800E20002003A0010000700000006008B
:100A2800839F68000200E20002003D0060001000A1
:100A3800E08018000600E20002003D00600111009D
:100A4800E0811900050007004F00E00002003B00AC
:100A580060001000E0801800000006006022B80066
:100A6800060220000000D0008180D2000482D2005B
:100A78008582D2000000A8000202520083825A0038
:100A880003003B000202420083824A000000A100EA
:100A98000603E900F3FF3A00000006000080FA00B0
:040AA8000000060044
:100DE0000000FA000220EF001A4078006004E100E1
:100DF0000A0032008A1F78000085FB0000FE070011
:100E00004F05780061C04000804078000080FB0002
:100E10000000450010407800F4FF37000080FA0021
:040E200000000600C8
:100600000000FA000F02AF0001003700FDFF3700C5
:0C0610008A1088000080FA00000006003C
:100AD0000A00FA008A1F780049FE070088002000FB
:100AE00017122A000E20ED00FEFF3A001020ED0044
:100AF000FCFF3A00000000001420EF0039FE070060
:100B00001CFE07001ACDB300CDFD070060004700B2
:100B1000400798001A00200056FE0700CE00900003
:100B200080487800600047000020EC0040079800F3
:100B30001A0020004FFE0700CE0090008048780089
:100B40006000470000A0EC00400798001A00200059
:100B500048FE0700CE009000804878006000470003
:100B600063004000400798001A00200041FE070083
:100B7000CE0090008048780060004700640040008C
:100B8000400798001A0020003AFE0700CE009000AF
:100B900080487800600047006500400040079800EA
:100BA0001A00200033FE0700CE0090008048780035
:100BB0006000470066004000400798001420EF00E6
:100BC0002CFE0700CE0090008048780068FE0700E9
:100BD0008800200017122A000E20ED00FEFF3A00C8
:100BE0001020ED00FCFF3A0000000000600047000C
:100BF0001045780076FE0700B1C3B3000104E100A0
:100C000003003600E00047000020EF008048780035
:100C1000600047000020EC00104578006CFE0700E3
:100C2000B1C3B3000104E1000400360060004700D6
:100C3000E10040000020EF0080487800600047009D
:100C400000A0EC001045780061FE07007704E10089
:100C50000400360060004700E20040000020EF0082
:100C6000804878006000470063004000104578002D
:100C700057FE0700804078006704E10003003E0053
:100C8000600CE10001003200040037006000470002
:100C9000E300400010C0B3008048780060004700C7
:100CA000640040001045780049FE0700804078004D
:100CB0007F04E10003003E00600CE100010032000F
:100CC0000400370060004700E400400010C0B3009B
:100CD00080487800600047006500400010457800BB
:100CE0003BFE0700804078006C04E10003003E00FA
:100CF000600CE10001003200040037006000470092
:100D0000E500400010C0B300804878006000470054
:100D100066004000104578002DFE070031C6B30084
:100D20000104E1000400360060004700E6004000D6
:100D30000020EF00804878001420EF00A9FD070094
:100D400060004700104578003DFD07006000470047
:100D50000020EC001045780039FD070060004700D6
:100D600000A0EC001045780035FD0700600047004A
:100D7000630040001045780031FD07006000470027
:100D800064004000104578002DFD0700600047001A
:100D9000650040001045780029FD0700600047000D
:100DA000660040001045780025FD07000AC1B30029
:100DB00023FD0700EEFD07008800200017122A001F
:100DC0000E20ED00FEFF3A001020ED00FCFF3A007F
:100DD000000000004F0578000080FA0000000600C7
:100400000000FA00D242A800D302A80060882000B1
:100410001000A100D442AF00050037006088200022
:100420001000A6000100370001003700F9FF370077
:080430000080FA000000060044
:1003E400E3FF07008A1F78000ACDB30093FF0700DC
:0C03F4004F05780091FF07000000060094
:100374000000FA00D302A800ACFF0700ABFF07009F
:10038400D242A800A9FF0700A8FF07009BFF0700AF
:10039400D302A900A5FF0700A4FF07009DFF0700E3
:0C03A400D242A9000080FA000000060010
:10023000A70020000E20ED00FEFF3A00000006009F
:100200000000FA00402D200000A0EC001080A100AA
:080210000080FA000000060066
:100218000000FA00402D200000A0EC001020A100F2
:080228000080FA00000006004E
:100240000000FA00010820000200E2001E00320057
:10025000F7FF0700F6FF0700F5FF0700F4FF0700B0
:10026000EDFF0700D242A900F1FF0700F0FF0700F1
:100270000A80FB000100600002003200D302A800E7
:1002800002003700DEFF0700D302A900E8FF0700E5
:10029000E7FF0700D242A800608820001000A100FC
:1002A000D442AF0005003700608820001000A6008F
:1002B0000100370001003700F9FF37004108DE0078
:1002C00080007800E0FF3700D9FF0700D8FF070063
:1002D000D1FF0700D242A900D5FF0700D4FF0700D5
:1002E000D302A800D2FF0700D1FF0700D0FF07000C
:1002F000CFFF0700D242A800608820001000A100B4
:10030000D442AF0005003700608820001000A6002E
:100310000100370001003700F9FF37000220EF002D
:10032000C3FF0700C2FF0700D502AE00020037007E
:10033000E180700000003700BDFF0700BCFF070030
:10034000BBFF0700BAFF0700B9FF0700B8FF0700AF
:10035000B7FF0700B6FF0700AFFF0700D242A900B2
:10036000A7FF0700D302A900014078000080FA002F
:040370000000060083
:100474000000FA000420EF0000082000800078004B
:100484000200E2001A00320068FF070067FF07005D
:10049400D302A80065FF070064FF0700D242A8004A
:1004A400608820001000A100D442AF00050037008E
:1004B400608820001000A60001003700010037000A
:1004C400F9FF3700D502AE000200370001017100C8
:1004D4000000370055FF070054FF07004DFF0700D9
:1004E400D242A9004108DE0080007800E4FF370012
:1004F400D302A8004DFF07004CFF07001400E200E0
:10050400020032003DFF0700D302A90047FF0700A5
:1005140046FF0700D242A800608820001000A10016
:1005240082007800D442AF000500370060882000C4
:100534001000A6000100370001003700F9FF370062
:100544003AFF070039FF070032FF0700D242A90033
:1005540036FF070035FF070028FF0700D302A90074
:0C056400014078000080FA000000060052
:100570000000FA0022FF0700D302A9002CFF0700A9
:100580002BFF0700D242A800608820001000A100C5
:10059000D442AF0005003700608820001000A6009C
:1005A0000100370001003700F9FF370020FF070086
:1005B0001FFF07001EFF07001DFF0700D302A80052
:1005C0001BFF07001AFF07000080FA00000006006A
:1005D0000A80FB006F0260000A80FB004400DE001E
:1005E0000080FB006F0060008080FB00A000200006
:1005F0000009B8000480FB00020040000000060073
:100F9800719F20000020EF0080487800C185200064
:100FA8000020EF0080487800918520000020EF00A5
:100FB80080487800418420000020EF0080487800B5
:100FC800B18520000020EF0080487800809F200035
:100FD8000A487800CB02AA0020C2AE0005003700FC
:100FE800D622AA0020C2A9008500AE000100370061
:100FF8008500A900E222A800071920000E20ED00B4
:0C100800FEFF3A00E222A90000000600F2
:100F6800A0852000104078006204E10006003900E6
:100F7800A18520000020EF00804878000060FE0076
:100F880010C0B300010037000020EF000000060089
:102800000A8020000B002000FE0009000B1D78004C
:0428100000000600BE
:1028140001802000D03C2900B0587800218020009D
:10282400003E290003000900B01878001180200040
:10283400D03E2900B0587800A1802000803E2900B5
:1028440001000900B0187800B05878000181200018
:10285400203F290001000900B0187800F180200011
:10286400F03F2900B0587800418120004038290009
:1028740023000900B0187800B0587800E1852000E2
:10288400803D290003000900B0187800D18520009C
:10289400903F2900B058780061862000603F2900ED
:1028A40000000900B0187800B0587800A186200014
:1028B400E03E290001000900B0187800918620004C
:1028C400E03F2900B0587800E1862000E03C290070
:1028D40003000900B0187800B05878008187200000
:1028E400A03F290000000900B0187800718720007B
:1028F400703D2900B0587800A1872000C03F29000E
:0C29040000000900B01878000000060078
:1023F4003400F8003600F800801F78002000200028
:102404000C000900B01F78008A1F78008B1F780029
:102414008C1F78008D1F780086E0A900D602AA00E0
:1024240080862000104078006104E1001E003A001C
:10243400818620000020EF00804878007C438000E3
:102444008D4380005A4380006B43800080882000C5
:10245400801F7800F6FB07002F00B1008088200061
:1024640010457800B6FB07009088200010457800DE
:1024740007FD0700A088200010457800F4FC070041
:10248400B088200010457800E1FC0700C0882000D7
:1024940010457800A3FA0700D08820001045780082
:1024A400DBFA0700050037001100200002002000BD
:1024B400A08620001098400010104900524380006C
:1024C4006343800000182500110020000010E10083
:1024D4000198E10004003A000020EF000220EF0020
:1024E4005043880061438800F24280000343800027
:1024F40060172500110020000010E1000198E100A0
:1025040005003A0040872000104078006104E10093
:1025140001003A008D20A8005043800061438000F0
:102524005040880061408800E0802000104078001E
:102534006104E10016003A00508720001040780042
:102544006004E10012003A00C203200003002000EE
:1025540050438000614380000002EB0088FB0700C9
:102564006000E1006088E10009003A005187200022
:1025740010C0B30080487800E18020000020EF0004
:10258400804878009186200010C0B300804878000D
:1025940050872000104078006104E10015003A00E3
:1025A400C2032000030020005043800061438000E8
:1025B4000002EB0072FB07006000E1006088E100AC
:1025C40007003A0090862000104078006004E10083
:1025D40003003A002187200010C0B300804878002F
:1025E40013E1AF000100370013E1A8000A21EF0056
:1025F40084E0A800CF0678004F067800CF05780065
:102604004F057800A00120000C0009004F1078004D
:102614004F0078003600F9003400F900004006004D
:101434000E00FA004EB8970040BF9F008C9FBE007C
:101444008A9FBE0002E12000030020000A00BE00C3
:101454000002EB006BFD07004F05BE00204798001B
:1014640002E12000030020000A00BE000002EB009D
:10147400C3FF07005007980061079800C2032000CB
:10148400030020000002EB005EFD070030479800D7
:101494005E009000EE009000C203200003002000D4
:1014A4000002EB00B6FF07004F06BE00404798005D
:1014B4008C9FBE0002712200030020000C00BE00BD
:1014C4000002EB004FFD07004F06BE0000479800E6
:1014D40002712200030020000C00BE000002EB0099
:1014E400A7FF0700500798006107980042062000F4
:1014F400030020000002EB0042FD070010479800A3
:101504005E009000EE0090004206200003002000E0
:101514000002EB009AFF070000417800CEB8970064
:101524000E409000804878004EB89700E1004000DB
:101534001E409000804878004EB8970000A0EC0050
:10154400024878004EB89700E30040002E40900017
:10155400804878004EB89700E40040003E40900078
:10156400804878004EB89700E50040004E40900057
:0C157400804878000080FA0000000600AB
:101344000800FA0064004700B0079800C9FC0700D1
:10135400E00047006400470003000900B05878002B
:101364003A4798006000470001000900B01F780068
:1013740044FD07004F00B1000080FA0000000600A1
:100678000C00FA008A1F78003AC0B30057FF070041
:100688003AFF07001ACDB300EBFE070066004700EB
:10069800500798001A00200074FF0700DE00900041
:1006A80080487800660047000020EC00500798005A
:1006B8001A0020006DFF0700DE00900080487800D7
:1006C8006600470000A0EC00500798001A002000C0
:1006D80066FF0700DE00900080487800660047004B
:1006E80063004000500798001420EF005FFF0700E8
:1006F800DE009000804878009BFF070066004700F6
:1007080010457800B0FF07002047980066004700B2
:100718000020EC0010457800ABFF07003047980038
:100728006600470000A0EC0010457800A6FF07000F
:100738004047980066004700630040001045780075
:10074800A1FF070050479800E20047000E00900004
:1007580003000900315878004F0578000080FA003E
:040768000000060087
:100888000000FA008A1F78003AC0B300D3FE0700C0
:100898006EF59700E6FE07000045780066FE070043
:1008A8007EF59700E2FE07000045780062FE07002B
:1008B8000EFD9700DEFE0700004578005EFE07008B
:1008C8001EFD9700DAFE0700004578005AFE070073
:1008D80025FF07004F0578000080FA000000060099
:100438000A80FB00A2002000110009000200D80079
:10044800000278008480FB00A00020000009B800AA
:100458000A80FB00020150000480FB00C400DD009C
:0C0468000280FB000100400000000600C4
:101894000800FA0064004700B007980075FB0700D1
:1018A400E00047006400470003000900B0587800D6
:1018B4002A4798006000470001000900B01F780023
:1018C400F0FB07004F00B1000080FA0000000600A2
:101854000800FA0064004700B007980085FB070001
:10186400E00047006400470003000900B058780016
:101874001A4798006000470001000900B01F780073
:1018840000FC07004F00B1000080FA0000000600D1
:101814000800FA0064004700B007980031FC070094
:10182400E00047006400470002000900B058780057
:101834000A4798006000470001000900B01F7800C3
:10184400C9FB07004F00B1000080FA000000060049
:1008E8000A00FA008A1F78001420EF00BBFE0700F8
:1008F8009EFE07001ACDB3004FFE070065004700B3
:10090800400798001A002000D8FE0700CE0090008B
:1009180080487800650047000020EC0040079800F8
:100928001A002000D1FE0700CE0090008048780011
:100938006500470000A0EC00400798001420EF0075
:10094800CAFE0700CE0090008048780006FF070026
:1009580065004700104578001BFF070040479800D6
:10096800650047000020EC001045780016FF0700DE
:10097800304798006500470000A0EC00104578005B
:1009880011FF070020479800E20047000E00900082
:1009980002000900315878004F0578000080FA00FD
:0409A8000000060045
:10076C000000FA008A1F78001420EF001AFF07001F
:10077C000EFD97002DFF070000457800ADFE070029
:10078C007EF5970029FF070000457800A9FE0700B9
:10079C006EF5970025FF070000457800A5FE0700C1
:1007AC0070FF07004F0578000080FA00000006007B
:100F28000800FA0064004700B00798006CFE07004C
:100F3800E00047006400470002000900B05878004C
:100F48001A4798006000470001000900B01F7800A8
:100F580004FE07004F00B1000080FA000000060000
:101014000800FA0064004700B007980031FE07009A
:10102400E00047006400470002000900B05878005F
:101034002A4798006000470001000900B01F7800AB
:10104400C9FD07004F00B1000080FA00000006004F
:102080000200FA003400F8003600F800801F7800E3
:10209000200020000C000900B01F78008A1F780083
:1020A0008520A900921080000E22A900C09F200068
:1020B000104078006004E10009003A0040C2B3001B
:1020C0000014E10006003A00D04F80006000E100FB
:1020D00003003A00C19F200010C0B3008048780080
:1020E000C09F2000104078006104E1003D003A00EC
:1020F000A0C2B3000014E10030003200119B2000A8
:10210000A09F200010804000024878006104200059
:10211000A09F20001008E1000300360011002000FD
:10212000A09F200010884000D04F80006500E10093
:1021300021003600209B20009040780070C4B3003E
:10214000000CE1001C003200309B20009040780021
:1021500000C5B300000CE10017003200409B2000D6
:102160009040780020C5B300000CE100120032005E
:10217000509B200090407800D0C4B300000CE100D8
:102180000D003200609B20009040780030C4B30006
:10219000000CE100080032000020EF00D04F880062
:1021A000C19F20000020EF0080487800919F200010
:1021B0000020EF00804878000A003700119B2000C3
:1021C000A09F20001080400002487800C19F20009E
:1021D00020C0B30080487800919F200010C0B30059
:1021E00080487800909F2000104078006104E10052
:1021F00077003A00309C20009040780010C4B30073
:10220000000CE1006A003A000620EF00661CE100C5
:102210000A0031008380FB00409A20000101400049
:102220000380FB00E7004000109B200001004000FD
:10223000104978000660EC00F4FF370023C3B300B8
:10224000C0C3B300001CE100220031008380FB000A
:10225000109B20000100400090407800C0C2B300F5
:10226000000CE10018003A000020EF000047980041
:102270000E4090006604E10011003100600047004C
:102280001080FB00E6004000409A20000101400061
:102290008380FB00600047001080FB00008040004E
:1022A000E1004000109B2000010040001049780030
:1022B00011C0B3006000470010C84000ECFF3700B9
:1022C000034078000100370003407800E1414000FE
:1022D000DBFF37004A9A2000C4FB0700F042880069
:1022E000014388004A9A200069FB070030408800BB
:1022F0004140880010802000104078006004E10018
:1023000012003A001180200010C0B300804878000D
:102310000180200010C0B30080487800F0428000A7
:1023200001438000504388006143880030408000B2
:1023300041408000704388008143880081862000EE
:1023400010C0B300804878008D20A90002E1200071
:1023500003002000F0428000014380000002EB00F7
:1023600008FC07006000E1006088E10010003A000E
:10237000CA02AA000180200010C0B3008048780083
:10238000F042800001438000504388006143880090
:1023900030408000414080007043880081438800C5
:1023A0008186200010C0B300804878008D20A900ED
:1023B000C19F20000020EF0080487800919F2000FE
:1023C0000020EF00804878000020EF00D04F880008
:1023D0004F057800A00120000C0009004F10780084
:1023E0004F0078003600F9003400F9000080FA0050
:0423F00000400600A3
:1011EC001A00FA008A1F7800700247000403780086
:1011FC00E20042000020EF0080487800E001470048
:10120C006C8141000020EF000220EF000089BE003D
:10121C001A4A7800E10042006100450090487800CD
:10122C0003007800200F98008A1F780006057800CC
:10123C005FFD07004F057800800078004F89DE00C5
:10124C002E0890000118780002107800F00047007A
:10125C0062004500904878000220EC0063004500D5
:10126C00904878006000470064004000200F980010
:10127C008A1F7800060578004DFD07004F057800A1
:10128C00800078004F89DE002E089000011878004D
:10129C0002107800F0004700640045009048780088
:1012AC000220EC0065004500904878006000470083
:1012BC0068004000200F9800060578003CFD0700F0
:1012CC00800078004F89DE002E089000011878000D
:1012DC000210780060014700420F98001200BE0017
:1012EC0002E1200003002000EDFD07004E099000F4
:1012FC00200F9800310F9800640141001200BE00CD
:10130C00C203200003002000E5FD07002E09900019
:10131C00BE09900000024100818249004E089000F5
:10132C006801400032004200A2804A004F0578005C
:08133C000080FA000000060029
:1007BC000000FA001A81FB00000220000010E1008A
:1007CC00030032006910E100010032000300370021
:1007DC006100450000057800F6FF37000220EF00AD
:1007EC000620EF00D00220000010E10005003A00C6
:1007FC00618141006100450000057800020078002D
:10080C0006003700B00220000010E10002003A00A0
:10081C006100450000057800030078008102780033
:10082C00800078001A82FB008A1F7800044578004B
:10083C00DCFE07004F0578000000E20008003200E3
:10084C00A000200000A9B900000320000000520005
:10085C00800241006100450000057800F1FF37007F
:10086C000200E2000200320060801200010037003A
:0C087C00050078000080FA000000060073
:1003B0000000FA0090C3B3000054E10005003E00C5
:1003C00000C3B3000054E1000200390010C0B300C4
:1003D000010037000020EF000080FB000080FA00E1
:0403E0000000060013
:101090001A00FA008A1F78007002470004037800E3
:1010A000E20042000020EF0080487800E0014700A5
:1010B0006C8141000020EF000220EF000089BE009B
:1010C00066004500104A7800E100420067004500D4
:1010D0009048780003007800200F98008A1F78005D
:1010E00006057800B5FD07004F0578008000780000
:1010F0004F89DE002E089000011878000210780059
:10110000F000470068004500904878000220EC009D
:101110006900450090487800600047006400400086
:10112000200F98008A1F780006057800A3FD0700AD
:101130004F057800800078004F89DE002E0890006F
:101140000118780002107800F00047006A0045009E
:10115000904878000220EC006B0045009048780031
:101160006000470068004000200F980006057800E6
:1011700092FD0700800078004F89DE002E08900065
:10118000011878000210780060004700400F9800B6
:10119000680140001200BE0002712200030020001E
:1011A00042FE07004E099000200F9800310F980072
:1011B000640141001200BE0042062000030020002E
:1011C0003AFE07002E099000BE099000000241007F
:1011D000818249004E09900032004200A2804A00FC
:0C11E0004F0578000080FA0000000600B7
:101C00003400F8003600F800801F78002000200023
:101C10000C000900B01F78008500A9002211800087
:101C2000709F2000104078006004E1000A003A0034
:101C300000CAB3000014E10007003A00719F2000C1
:101C400010C0B30080487800809F20001080FB0007
:101C500024A2B70003013700709F200010407800D5
:101C60006104E1000A003A0000CFB3000014E10073
:101C700007003A00719F20000020EF0080487800A4
:101C8000819F20000020EF0080487800F500370099
:101C900040842000104078006004E10016003A0003
:101CA00030CAB3000014E10013003A004184200060
:101CB00010C0B300804878000020EF001045880075
:101CC000F0802000104078006004E10009003A0034
:101CD000418A2000208A20001080400010407800B7
:101CE0000080FB0024A2B70011002000208A200001
:101CF00010884000DB00370040842000104078004E
:101D00006104E10025003A006014E1000E003A0091
:101D1000F0802000104078006004E10009003A00E3
:101D2000418A2000208A2000108040001040780066
:101D30000080FB0024A2B70011002000208A2000B0
:101D4000108840001400370030CFB3000014E100C9
:101D500011003A00A10F2000208A20001008E100A5
:101D600003003100218720000020EF008048780028
:101D7000418420000020EF0080487800F08020009F
:101D8000104078006004E10003003A00F180200078
:101D900010C0B30080487800B2003700C085200032
:101DA000104078006004E1000A003A0040CAB30025
:101DB0000014E10007003A00C185200010C0B30004
:101DC00080487800618720000020EF00804878007C
:101DD000A4003700C0852000104078006104E100B5
:101DE00042003A0040CFB3000014E1000900320085
:101DF000608720009080FB00A08920000100400047
:101E00000248780011C0B3006087200010C840006D
:101E100035003700C18520000020EF0080487800A1
:101E200022802000E3004100A08920009048780033
:101E3000E2004100B089200090487800E1004100B4
:101E4000C089200090487800D0892000104978008F
:101E500002812000E3004100E089200090487800E2
:101E6000E2004100F089200090487800E100410044
:101E7000008A200090487800108A200010497800DD
:101E800070862000104078006004E10016003A00DF
:101E900010408000214080001043880021438800CA
:101EA0008040800091408000504088006140880060
:101EB00010408000214080007043880081438800EA
:101EC000804080009140800050438800614388003A
:101ED0008186200010C0B300804878004187200030
:101EE00020C0B300804878005E0037009085200055
:101EF000104078006004E1002D003A0050CAB300A1
:101F00000014E1002A003A009185200010C0B300BF
:101F100080487800618620000020EF00804878002B
:101F2000408720001080FB0024A2B70022862000FA
:101F3000630041009040780020892000014878002B
:101F4000620041009040780030892000014878000C
:101F500061004100904078004089200001487800ED
:101F6000924078005089200001487800A28020002B
:101F700063004100904078006089200001487800AB
:101F8000620041009040780070892000014878008C
:101F9000610041009040780080892000014878006D
:101FA0009240780090892000014878002D00370089
:101FB00090852000104078006104E10014003A0090
:101FC0006014E1000B003A00608620009080FB0066
:101FD0002089200001004000104078000080FB00B4
:101FE00024A2B70011C0B3006086200010C84000D2
:101FF0000600370050CFB3000014E10003003A00A0
:10200000918520000020EF008048780015003700FF
:10201000B0852000104078006004E1000A003A001A
:1020200010CAB3000014E10007003A00B185200097
:1020300010C0B30080487800E180200010C0B300D9
:102040008048780007003700B085200010407800F5
:102050006104E10003003A00B18520000020EF0098
:1020600080487800A00120000C0009004F10780083
:102070004F0078003600F9003400F90000400600F7
:1018D4000C00FA003400F8003600F800801F78008D
:1018E400200020000C000900B01F78008A1F780037
:1018F40084E0A900110020008087200010884000A7
:10190400BA002000D2FD070000079800AA002000BA
:10191400CFFD0700100798009A002000CCFD0700B7
:101924002007980060014700020278006200470027
:10193400800278006400470000037800E601470055
:10194400508420001080FB00C400DD0061004100D1
:101954001080FB00008070008049780061804100A5
:101964001448780062814100618042001040780090
:101974000080FB00C400DD00610043001080FB0018
:1019840000807000004978006380410015487800A9
:1019940064804100164878000620EF00651CE100D1
:1019A4000B0031008380FB00A08720009080400062
:1019B400408A200001014000E60047000380FB004C
:1019C40000804000104978000660EC00F3FF370007
:1019D400D0438000E5004000D1438800A00F2000E0
:1019E4000008E10033003900308720009080FB00BC
:1019F400808720001008E10003003E000020EF0073
:101A0400C043880013E1A90020872000104078001B
:101A14006104E10020003A00A2802000620041003D
:101A240090407800E099200001487800610041006E
:101A340090407800F09920000148780092407800A6
:101A4400009A2000014878002286200062004100AC
:101A540090407800109A200001487800610041000D
:101A640090407800209A2000014878009240780045
:101A7400309A200001487800F18020000020EF0017
:101A8400804878000020EF00D04388002ACBB300C0
:101A940040FD070007003700F18020000020EF0020
:101AA400804878000020EF00D04388001ACBB300B0
:101AB40038FD07004F057800A00120000C00090044
:101AC4004F1078004F0078003600F9003400F90018
:081AD4000080FA00004006004A
:10105400000E2000A0A2B7003A15880080122000DC
:10106400A4A2B700A1E2A800A022A800A002AF0099
:101074000200370000000000FCFF3700011480006C
:0C108400A1E2A9000100780000000600B5
:101ADC003400F8003600F800801F78002000200049
:101AEC000C000900B01F78008400A900708720004A
:101AFC00104078006004E10014003A007187200067
:101B0C0010C0B30080487800708620001040780028
:101B1C006004E1000D003A001080200010407800B5
:101B2C006104E10009003A007186200010C0B30086
:101B3C0080487800D185200010C0B3008048780020
:101B4C004187200010C0B30080487800008020003E
:101B5C00104078006104E1000F003A000180200081
:101B6C000020EF0080487800F042800001438000A4
:101B7C005040880061408800304080004140800027
:101B8C0010438800214388004187200010C0B30017
:101B9C00804878000500370011002000020020006A
:101BAC00E08520001098400010104900F24280009F
:101BBC000343800000182500110020000010E100F4
:101BCC000198E10004003A000020EF000220EF0031
:101BDC00F042880001438800A00120000C0009009D
:101BEC004F1078004F0078003600F9003400F900EF
:041BFC00004006009F
:10270800245000004D5400004B33000031340000C9
:102718002C3000002C3100002C3000002C30000040
:102728002C3000002C3000002C3000002C30000031
:102738002C3000002C3000002C3000002C30000021
:102748002C3000002C3000002C3000002C30000011
:102758002C3000002A320000390D00000A00000069
:04276800000A000063
:10276C00245000004D5400004B3200003230000069
:10277C002C31000030300000302A000031460000BF
:08278C000D0A0000000000002E
:042794000000000041
:04279800000000003D
:08279C00000000000000000035
:0427A40000640000CD
:0427A800000000002D
:0427AC000000000029
:0827B000000000000000000021
:0827B800000000000000000019
:0827C000000000000000000011
:0827C800000000000000000009
:0827D000000000000000000001
:0427D80000000000FD
:0827DC000000000000000000F5
:0827E4000000000000000000ED
:0427EC0000000000E9
:0427F00000000000E5
:0427F40000000000E1
:0427F80000000000DD
:0427FC0000010000D8
:0200000401F009
:1C000000138700003F800000B38700000F3100000F3300000700000003C0000005
:00000001FF
